{
  "_format": "hh-sol-artifact-1",
  "contractName": "MyEpicNFT",
  "sourceName": "contracts/MyEpicNFT.sol",
  "abi": [
    {
      "inputs": [],
      "stateMutability": "nonpayable",
      "type": "constructor"
    },
    {
      "anonymous": false,
      "inputs": [
        {
          "indexed": true,
          "internalType": "address",
          "name": "owner",
          "type": "address"
        },
        {
          "indexed": true,
          "internalType": "address",
          "name": "approved",
          "type": "address"
        },
        {
          "indexed": true,
          "internalType": "uint256",
          "name": "tokenId",
          "type": "uint256"
        }
      ],
      "name": "Approval",
      "type": "event"
    },
    {
      "anonymous": false,
      "inputs": [
        {
          "indexed": true,
          "internalType": "address",
          "name": "owner",
          "type": "address"
        },
        {
          "indexed": true,
          "internalType": "address",
          "name": "operator",
          "type": "address"
        },
        {
          "indexed": false,
          "internalType": "bool",
          "name": "approved",
          "type": "bool"
        }
      ],
      "name": "ApprovalForAll",
      "type": "event"
    },
    {
      "anonymous": false,
      "inputs": [
        {
          "indexed": false,
          "internalType": "address",
          "name": "sender",
          "type": "address"
        },
        {
          "indexed": false,
          "internalType": "uint256",
          "name": "tokenId",
          "type": "uint256"
        }
      ],
      "name": "NewEpicNFTMinted",
      "type": "event"
    },
    {
      "anonymous": false,
      "inputs": [
        {
          "indexed": true,
          "internalType": "address",
          "name": "from",
          "type": "address"
        },
        {
          "indexed": true,
          "internalType": "address",
          "name": "to",
          "type": "address"
        },
        {
          "indexed": true,
          "internalType": "uint256",
          "name": "tokenId",
          "type": "uint256"
        }
      ],
      "name": "Transfer",
      "type": "event"
    },
    {
      "inputs": [
        {
          "internalType": "address",
          "name": "to",
          "type": "address"
        },
        {
          "internalType": "uint256",
          "name": "tokenId",
          "type": "uint256"
        }
      ],
      "name": "approve",
      "outputs": [],
      "stateMutability": "nonpayable",
      "type": "function"
    },
    {
      "inputs": [
        {
          "internalType": "address",
          "name": "owner",
          "type": "address"
        }
      ],
      "name": "balanceOf",
      "outputs": [
        {
          "internalType": "uint256",
          "name": "",
          "type": "uint256"
        }
      ],
      "stateMutability": "view",
      "type": "function"
    },
    {
      "inputs": [
        {
          "internalType": "uint256",
          "name": "tokenId",
          "type": "uint256"
        }
      ],
      "name": "getApproved",
      "outputs": [
        {
          "internalType": "address",
          "name": "",
          "type": "address"
        }
      ],
      "stateMutability": "view",
      "type": "function"
    },
    {
      "inputs": [],
      "name": "getNbTokensMinted",
      "outputs": [
        {
          "internalType": "uint256",
          "name": "",
          "type": "uint256"
        }
      ],
      "stateMutability": "view",
      "type": "function"
    },
    {
      "inputs": [],
      "name": "getRandomColor",
      "outputs": [
        {
          "internalType": "string",
          "name": "",
          "type": "string"
        }
      ],
      "stateMutability": "view",
      "type": "function"
    },
    {
      "inputs": [
        {
          "internalType": "address",
          "name": "owner",
          "type": "address"
        },
        {
          "internalType": "address",
          "name": "operator",
          "type": "address"
        }
      ],
      "name": "isApprovedForAll",
      "outputs": [
        {
          "internalType": "bool",
          "name": "",
          "type": "bool"
        }
      ],
      "stateMutability": "view",
      "type": "function"
    },
    {
      "inputs": [],
      "name": "makeAnEpicNFT",
      "outputs": [],
      "stateMutability": "nonpayable",
      "type": "function"
    },
    {
      "inputs": [],
      "name": "name",
      "outputs": [
        {
          "internalType": "string",
          "name": "",
          "type": "string"
        }
      ],
      "stateMutability": "view",
      "type": "function"
    },
    {
      "inputs": [
        {
          "internalType": "uint256",
          "name": "tokenId",
          "type": "uint256"
        }
      ],
      "name": "ownerOf",
      "outputs": [
        {
          "internalType": "address",
          "name": "",
          "type": "address"
        }
      ],
      "stateMutability": "view",
      "type": "function"
    },
    {
      "inputs": [
        {
          "internalType": "uint256",
          "name": "tokenId",
          "type": "uint256"
        }
      ],
      "name": "pickRandomFirstWord",
      "outputs": [
        {
          "internalType": "string",
          "name": "",
          "type": "string"
        }
      ],
      "stateMutability": "view",
      "type": "function"
    },
    {
      "inputs": [
        {
          "internalType": "uint256",
          "name": "tokenId",
          "type": "uint256"
        }
      ],
      "name": "pickRandomSecondWord",
      "outputs": [
        {
          "internalType": "string",
          "name": "",
          "type": "string"
        }
      ],
      "stateMutability": "view",
      "type": "function"
    },
    {
      "inputs": [
        {
          "internalType": "uint256",
          "name": "tokenId",
          "type": "uint256"
        }
      ],
      "name": "pickRandomThirdWord",
      "outputs": [
        {
          "internalType": "string",
          "name": "",
          "type": "string"
        }
      ],
      "stateMutability": "view",
      "type": "function"
    },
    {
      "inputs": [
        {
          "internalType": "address",
          "name": "from",
          "type": "address"
        },
        {
          "internalType": "address",
          "name": "to",
          "type": "address"
        },
        {
          "internalType": "uint256",
          "name": "tokenId",
          "type": "uint256"
        }
      ],
      "name": "safeTransferFrom",
      "outputs": [],
      "stateMutability": "nonpayable",
      "type": "function"
    },
    {
      "inputs": [
        {
          "internalType": "address",
          "name": "from",
          "type": "address"
        },
        {
          "internalType": "address",
          "name": "to",
          "type": "address"
        },
        {
          "internalType": "uint256",
          "name": "tokenId",
          "type": "uint256"
        },
        {
          "internalType": "bytes",
          "name": "_data",
          "type": "bytes"
        }
      ],
      "name": "safeTransferFrom",
      "outputs": [],
      "stateMutability": "nonpayable",
      "type": "function"
    },
    {
      "inputs": [
        {
          "internalType": "address",
          "name": "operator",
          "type": "address"
        },
        {
          "internalType": "bool",
          "name": "approved",
          "type": "bool"
        }
      ],
      "name": "setApprovalForAll",
      "outputs": [],
      "stateMutability": "nonpayable",
      "type": "function"
    },
    {
      "inputs": [
        {
          "internalType": "bytes4",
          "name": "interfaceId",
          "type": "bytes4"
        }
      ],
      "name": "supportsInterface",
      "outputs": [
        {
          "internalType": "bool",
          "name": "",
          "type": "bool"
        }
      ],
      "stateMutability": "view",
      "type": "function"
    },
    {
      "inputs": [],
      "name": "symbol",
      "outputs": [
        {
          "internalType": "string",
          "name": "",
          "type": "string"
        }
      ],
      "stateMutability": "view",
      "type": "function"
    },
    {
      "inputs": [
        {
          "internalType": "uint256",
          "name": "tokenId",
          "type": "uint256"
        }
      ],
      "name": "tokenURI",
      "outputs": [
        {
          "internalType": "string",
          "name": "",
          "type": "string"
        }
      ],
      "stateMutability": "view",
      "type": "function"
    },
    {
      "inputs": [
        {
          "internalType": "address",
          "name": "from",
          "type": "address"
        },
        {
          "internalType": "address",
          "name": "to",
          "type": "address"
        },
        {
          "internalType": "uint256",
          "name": "tokenId",
          "type": "uint256"
        }
      ],
      "name": "transferFrom",
      "outputs": [],
      "stateMutability": "nonpayable",
      "type": "function"
    }
  ],
  "bytecode": "0x60806040526040518060c001604052806040518060400160405280600581526020017f44414d534f00000000000000000000000000000000000000000000000000000081525081526020016040518060400160405280600581526020017f424f4f424100000000000000000000000000000000000000000000000000000081525081526020016040518060400160405280600381526020017f504e4c000000000000000000000000000000000000000000000000000000000081525081526020016040518060400160405280600381526020017f4a554c000000000000000000000000000000000000000000000000000000000081525081526020016040518060400160405280600581526020017f4d4148455300000000000000000000000000000000000000000000000000000081525081526020016040518060400160405280600481526020017f4648494e00000000000000000000000000000000000000000000000000000000815250815250600890600662000181929190620008d6565b506040518060a001604052806040518060400160405280600981526020017f464541545552494e47000000000000000000000000000000000000000000000081525081526020016040518060400160405280600281526020017f565300000000000000000000000000000000000000000000000000000000000081525081526020016040518060400160405280600581526020017f5349474e4500000000000000000000000000000000000000000000000000000081525081526020016040518060400160405280600781526020017f52454e564f49450000000000000000000000000000000000000000000000000081525081526020016040518060400160405280601481526020017f444f4e4e4553204445204c4120464f52434520410000000000000000000000008152508152506009906005620002c49291906200093d565b506040518060a001604052806040518060400160405280600581526020017f4452414b4500000000000000000000000000000000000000000000000000000081525081526020016040518060400160405280600c81526020017f58585854454e544143494f4e000000000000000000000000000000000000000081525081526020016040518060400160405280600981526020017f4c494c2054454b4b41000000000000000000000000000000000000000000000081525081526020016040518060400160405280600a81526020017f4b4154592050455252590000000000000000000000000000000000000000000081525081526020016040518060400160405280600781526020017f524948414e4e4100000000000000000000000000000000000000000000000000815250815250600a906005620004079291906200093d565b506040518060c001604052806040518060400160405280600381526020017f726564000000000000000000000000000000000000000000000000000000000081525081526020016040518060400160405280600481526020017f626c75650000000000000000000000000000000000000000000000000000000081525081526020016040518060400160405280600581526020017f677265656e00000000000000000000000000000000000000000000000000000081525081526020016040518060400160405280600681526020017f707572706c65000000000000000000000000000000000000000000000000000081525081526020016040518060400160405280600681526020017f79656c6c6f77000000000000000000000000000000000000000000000000000081525081526020016040518060400160405280600681526020017f6f72616e67650000000000000000000000000000000000000000000000000000815250815250600b90600662000585929190620008d6565b5062000596620006e860201b60201c565b600c9080519060200190620005ad929190620009a4565b50600c604051602001620005c2919062000c12565b604051602081830303815290604052600d9080519060200190620005e8929190620009a4565b50348015620005f657600080fd5b506040518060400160405280600981526020017f5371756172654e465400000000000000000000000000000000000000000000008152506040518060400160405280600681526020017f535155415245000000000000000000000000000000000000000000000000000081525081600090805190602001906200067b929190620009a4565b50806001908051906020019062000694929190620009a4565b505050620006e26040518060400160405280601e81526020017f54686973206973206d79204e465420636f6e74726163742e20576f61682100008152506200080a60201b6200130d1760201c565b6200100d565b60606000600b8054905042336040516020016200070792919062000c45565b6040516020818303038152906040528051906020012060001c6200072c919062000db1565b9050600b818154811062000769577f4e487b7100000000000000000000000000000000000000000000000000000000600052603260045260246000fd5b906000526020600020018054620007809062000d49565b80601f0160208091040260200160405190810160405280929190818152602001828054620007ae9062000d49565b8015620007ff5780601f10620007d357610100808354040283529160200191620007ff565b820191906000526020600020905b815481529060010190602001808311620007e157829003601f168201915b505050505091505090565b620008aa8160405160240162000821919062000c75565b6040516020818303038152906040527f41304fac000000000000000000000000000000000000000000000000000000007bffffffffffffffffffffffffffffffffffffffffffffffffffffffff19166020820180517bffffffffffffffffffffffffffffffffffffffffffffffffffffffff8381831617835250505050620008ad60201b60201c565b50565b60008151905060006a636f6e736f6c652e6c6f679050602083016000808483855afa5050505050565b8280548282559060005260206000209081019282156200092a579160200282015b828111156200092957825182908051906020019062000918929190620009a4565b5091602001919060010190620008f7565b5b50905062000939919062000a35565b5090565b82805482825590600052602060002090810192821562000991579160200282015b82811115620009905782518290805190602001906200097f929190620009a4565b50916020019190600101906200095e565b5b509050620009a0919062000a35565b5090565b828054620009b29062000d49565b90600052602060002090601f016020900481019282620009d6576000855562000a22565b82601f10620009f157805160ff191683800117855562000a22565b8280016001018555821562000a22579182015b8281111562000a2157825182559160200191906001019062000a04565b5b50905062000a31919062000a5d565b5090565b5b8082111562000a59576000818162000a4f919062000a7c565b5060010162000a36565b5090565b5b8082111562000a7857600081600090555060010162000a5e565b5090565b50805462000a8a9062000d49565b6000825580601f1062000a9e575062000abf565b601f01602090049060005260206000209081019062000abe919062000a5d565b5b50565b62000ad762000ad18262000cd5565b62000d7f565b82525050565b600062000aea8262000cae565b62000af6818562000cb9565b935062000b0881856020860162000d13565b62000b138162000e47565b840191505092915050565b6000815462000b2d8162000d49565b62000b39818662000cca565b9450600182166000811462000b57576001811462000b695762000ba0565b60ff1983168652818601935062000ba0565b62000b748562000c99565b60005b8381101562000b985781548189015260018201915060208101905062000b77565b838801955050505b50505092915050565b600062000bb860508362000cca565b915062000bc58262000e65565b605082019050919050565b600062000bdf60ea8362000cca565b915062000bec8262000eda565b60ea82019050919050565b62000c0c62000c068262000d09565b62000da7565b82525050565b600062000c1f8262000ba9565b915062000c2d828462000b1e565b915062000c3a8262000bd0565b915081905092915050565b600062000c53828562000bf7565b60208201915062000c65828462000ac2565b6014820191508190509392505050565b6000602082019050818103600083015262000c91818462000add565b905092915050565b60008190508160005260206000209050919050565b600081519050919050565b600082825260208201905092915050565b600081905092915050565b600062000ce28262000ce9565b9050919050565b600073ffffffffffffffffffffffffffffffffffffffff82169050919050565b6000819050919050565b60005b8381101562000d3357808201518184015260208101905062000d16565b8381111562000d43576000848401525b50505050565b6000600282049050600182168062000d6257607f821691505b6020821081141562000d795762000d7862000e18565b5b50919050565b600062000d8c8262000d93565b9050919050565b600062000da08262000e58565b9050919050565b6000819050919050565b600062000dbe8262000d09565b915062000dcb8362000d09565b92508262000dde5762000ddd62000de9565b5b828206905092915050565b7f4e487b7100000000000000000000000000000000000000000000000000000000600052601260045260246000fd5b7f4e487b7100000000000000000000000000000000000000000000000000000000600052602260045260246000fd5b6000601f19601f8301169050919050565b60008160601b9050919050565b7f3c7376672077696474683d2738303027206865696768743d273630302720786d60008201527f6c6e733d27687474703a2f2f7777772e77332e6f72672f323030302f7376672760208201527f3e3c673e3c726563742066696c6c3d2700000000000000000000000000000000604082015250565b7f27207374726f6b653d27233030302720783d272d31332720793d272d302e352760008201527f2077696474683d2738313527206865696768743d27363033272069643d27737660208201527f675f31272f3e3c746578742066696c6c3d272330303030303027207374726f6b60408201527f653d272330303027207374726f6b652d77696474683d27302720783d2733383460608201527f2720793d273337322e35272069643d277376675f322720666f6e742d73697a6560808201527f3d2732342720666f6e742d66616d696c793d274e6f746f2053616e73204a502760a08201527f20746578742d616e63686f723d2773746172742720786d6c3a73706163653d2760c08201527f7072657365727665273e0000000000000000000000000000000000000000000060e082015250565b613e78806200101d6000396000f3fe608060405234801561001057600080fd5b50600436106101215760003560e01c806370a08231116100ad578063b88d4fde11610071578063b88d4fde1461032e578063c575757a1461034a578063c87b56dd1461037a578063de9d132f146103aa578063e985e9c5146103b457610121565b806370a082311461027657806395d89b41146102a65780639a3980a0146102c4578063a22cb465146102e2578063b187301f146102fe57610121565b806323b872dd116100f457806323b872dd146101c05780632de38d68146101dc5780633d5d216e1461020c57806342842e0e1461022a5780636352211e1461024657610121565b806301ffc9a71461012657806306fdde0314610156578063081812fc14610174578063095ea7b3146101a4575b600080fd5b610140600480360381019061013b9190612739565b6103e4565b60405161014d9190612f45565b60405180910390f35b61015e6104c6565b60405161016b9190612f60565b60405180910390f35b61018e6004803603810190610189919061278b565b610558565b60405161019b9190612eb5565b60405180910390f35b6101be60048036038101906101b991906126fd565b6105dd565b005b6101da60048036038101906101d591906125f7565b6106f5565b005b6101f660048036038101906101f1919061278b565b610755565b6040516102039190612f60565b60405180910390f35b610214610873565b6040516102219190612f60565b60405180910390f35b610244600480360381019061023f91906125f7565b610988565b005b610260600480360381019061025b919061278b565b6109a8565b60405161026d9190612eb5565b60405180910390f35b610290600480360381019061028b9190612592565b610a5a565b60405161029d91906131c0565b60405180910390f35b6102ae610b12565b6040516102bb9190612f60565b60405180910390f35b6102cc610ba4565b6040516102d991906131c0565b60405180910390f35b6102fc60048036038101906102f791906126c1565b610bb5565b005b6103186004803603810190610313919061278b565b610bcb565b6040516103259190612f60565b60405180910390f35b61034860048036038101906103439190612646565b610ce9565b005b610364600480360381019061035f919061278b565b610d4b565b6040516103719190612f60565b60405180910390f35b610394600480360381019061038f919061278b565b610e69565b6040516103a19190612f60565b60405180910390f35b6103b2610fbb565b005b6103ce60048036038101906103c991906125bb565b611279565b6040516103db9190612f45565b60405180910390f35b60007f80ac58cd000000000000000000000000000000000000000000000000000000007bffffffffffffffffffffffffffffffffffffffffffffffffffffffff1916827bffffffffffffffffffffffffffffffffffffffffffffffffffffffff191614806104af57507f5b5e139f000000000000000000000000000000000000000000000000000000007bffffffffffffffffffffffffffffffffffffffffffffffffffffffff1916827bffffffffffffffffffffffffffffffffffffffffffffffffffffffff1916145b806104bf57506104be826113a6565b5b9050919050565b6060600080546104d590613454565b80601f016020809104026020016040519081016040528092919081815260200182805461050190613454565b801561054e5780601f106105235761010080835404028352916020019161054e565b820191906000526020600020905b81548152906001019060200180831161053157829003601f168201915b5050505050905090565b600061056382611410565b6105a2576040517f08c379a000000000000000000000000000000000000000000000000000000000815260040161059990613140565b60405180910390fd5b6004600083815260200190815260200160002060009054906101000a900473ffffffffffffffffffffffffffffffffffffffff169050919050565b60006105e8826109a8565b90508073ffffffffffffffffffffffffffffffffffffffff168373ffffffffffffffffffffffffffffffffffffffff161415610659576040517f08c379a000000000000000000000000000000000000000000000000000000000815260040161065090613180565b60405180910390fd5b8073ffffffffffffffffffffffffffffffffffffffff1661067861147c565b73ffffffffffffffffffffffffffffffffffffffff1614806106a757506106a6816106a161147c565b611279565b5b6106e6576040517f08c379a00000000000000000000000000000000000000000000000000000000081526004016106dd90613080565b60405180910390fd5b6106f08383611484565b505050565b61070661070061147c565b8261153d565b610745576040517f08c379a000000000000000000000000000000000000000000000000000000000815260040161073c906131a0565b60405180910390fd5b61075083838361161b565b505050565b6060600061078961076584611882565b6040516020016107759190612e45565b604051602081830303815290604052611a2f565b90506008805490508161079c919061352e565b9050600881815481106107d8577f4e487b7100000000000000000000000000000000000000000000000000000000600052603260045260246000fd5b9060005260206000200180546107ed90613454565b80601f016020809104026020016040519081016040528092919081815260200182805461081990613454565b80156108665780601f1061083b57610100808354040283529160200191610866565b820191906000526020600020905b81548152906001019060200180831161084957829003601f168201915b5050505050915050919050565b60606000600b805490504233604051602001610890929190612e89565b6040516020818303038152906040528051906020012060001c6108b3919061352e565b9050600b81815481106108ef577f4e487b7100000000000000000000000000000000000000000000000000000000600052603260045260246000fd5b90600052602060002001805461090490613454565b80601f016020809104026020016040519081016040528092919081815260200182805461093090613454565b801561097d5780601f106109525761010080835404028352916020019161097d565b820191906000526020600020905b81548152906001019060200180831161096057829003601f168201915b505050505091505090565b6109a383838360405180602001604052806000815250610ce9565b505050565b6000806002600084815260200190815260200160002060009054906101000a900473ffffffffffffffffffffffffffffffffffffffff169050600073ffffffffffffffffffffffffffffffffffffffff168173ffffffffffffffffffffffffffffffffffffffff161415610a51576040517f08c379a0000000000000000000000000000000000000000000000000000000008152600401610a48906130c0565b60405180910390fd5b80915050919050565b60008073ffffffffffffffffffffffffffffffffffffffff168273ffffffffffffffffffffffffffffffffffffffff161415610acb576040517f08c379a0000000000000000000000000000000000000000000000000000000008152600401610ac2906130a0565b60405180910390fd5b600360008373ffffffffffffffffffffffffffffffffffffffff1673ffffffffffffffffffffffffffffffffffffffff168152602001908152602001600020549050919050565b606060018054610b2190613454565b80601f0160208091040260200160405190810160405280929190818152602001828054610b4d90613454565b8015610b9a5780601f10610b6f57610100808354040283529160200191610b9a565b820191906000526020600020905b815481529060010190602001808311610b7d57829003601f168201915b5050505050905090565b6000610bb06007611a62565b905090565b610bc7610bc061147c565b8383611a70565b5050565b60606000610bff610bdb84611882565b604051602001610beb9190612dde565b604051602081830303815290604052611a2f565b905060098054905081610c12919061352e565b905060098181548110610c4e577f4e487b7100000000000000000000000000000000000000000000000000000000600052603260045260246000fd5b906000526020600020018054610c6390613454565b80601f0160208091040260200160405190810160405280929190818152602001828054610c8f90613454565b8015610cdc5780601f10610cb157610100808354040283529160200191610cdc565b820191906000526020600020905b815481529060010190602001808311610cbf57829003601f168201915b5050505050915050919050565b610cfa610cf461147c565b8361153d565b610d39576040517f08c379a0000000000000000000000000000000000000000000000000000000008152600401610d30906131a0565b60405180910390fd5b610d4584848484611bdd565b50505050565b60606000610d7f610d5b84611882565b604051602001610d6b9190612dbc565b604051602081830303815290604052611a2f565b9050600a8054905081610d92919061352e565b9050600a8181548110610dce577f4e487b7100000000000000000000000000000000000000000000000000000000600052603260045260246000fd5b906000526020600020018054610de390613454565b80601f0160208091040260200160405190810160405280929190818152602001828054610e0f90613454565b8015610e5c5780601f10610e3157610100808354040283529160200191610e5c565b820191906000526020600020905b815481529060010190602001808311610e3f57829003601f168201915b5050505050915050919050565b6060610e7482611410565b610eb3576040517f08c379a0000000000000000000000000000000000000000000000000000000008152600401610eaa90613120565b60405180910390fd5b6000600660008481526020019081526020016000208054610ed390613454565b80601f0160208091040260200160405190810160405280929190818152602001828054610eff90613454565b8015610f4c5780601f10610f2157610100808354040283529160200191610f4c565b820191906000526020600020905b815481529060010190602001808311610f2f57829003601f168201915b505050505090506000610f5d611c39565b9050600081511415610f73578192505050610fb6565b600082511115610fa8578082604051602001610f90929190612cd6565b60405160208183030381529060405292505050610fb6565b610fb184611c50565b925050505b919050565b6000610fc76007611a62565b90506110076040518060400160405280600781526020017f626173655376670000000000000000000000000000000000000000000000000081525061130d565b61109a600d805461101790613454565b80601f016020809104026020016040519081016040528092919081815260200182805461104390613454565b80156110905780601f1061106557610100808354040283529160200191611090565b820191906000526020600020905b81548152906001019060200180831161107357829003601f168201915b505050505061130d565b60006110a582610755565b905060006110b283610bcb565b905060006110bf84610d4b565b905060008383836040516020016110d893929190612cfa565b60405160208183030381529060405290506000600d86868686604051602001611105959493929190612d41565b6040516020818303038152906040529050600061114a8361112584611cf7565b604051602001611136929190612e00565b604051602081830303815290604052611cf7565b905060008160405160200161115f9190612e67565b60405160208183030381529060405290506111ae6040518060400160405280601581526020017f0a2d2d2d2d2d2d2d2d2d2d2d2d2d2d2d2d2d2d2d2d000000000000000000000081525061130d565b6111b78161130d565b6111f56040518060400160405280601581526020017f2d2d2d2d2d2d2d2d2d2d2d2d2d2d2d2d2d2d2d2d0a000000000000000000000081525061130d565b6111ff3389611eb5565b6112098882611ed3565b6112136007611f47565b611236604051806060016040528060258152602001613dde602591398933611f5d565b7febb98688741ffa4c7589bf325de30cf7becb63de567842e1ccdb6cb949fdc82c3389604051611267929190612f1c565b60405180910390a15050505050505050565b6000600560008473ffffffffffffffffffffffffffffffffffffffff1673ffffffffffffffffffffffffffffffffffffffff16815260200190815260200160002060008373ffffffffffffffffffffffffffffffffffffffff1673ffffffffffffffffffffffffffffffffffffffff16815260200190815260200160002060009054906101000a900460ff16905092915050565b6113a3816040516024016113219190612f60565b6040516020818303038152906040527f41304fac000000000000000000000000000000000000000000000000000000007bffffffffffffffffffffffffffffffffffffffffffffffffffffffff19166020820180517bffffffffffffffffffffffffffffffffffffffffffffffffffffffff8381831617835250505050611ffc565b50565b60007f01ffc9a7000000000000000000000000000000000000000000000000000000007bffffffffffffffffffffffffffffffffffffffffffffffffffffffff1916827bffffffffffffffffffffffffffffffffffffffffffffffffffffffff1916149050919050565b60008073ffffffffffffffffffffffffffffffffffffffff166002600084815260200190815260200160002060009054906101000a900473ffffffffffffffffffffffffffffffffffffffff1673ffffffffffffffffffffffffffffffffffffffff1614159050919050565b600033905090565b816004600083815260200190815260200160002060006101000a81548173ffffffffffffffffffffffffffffffffffffffff021916908373ffffffffffffffffffffffffffffffffffffffff160217905550808273ffffffffffffffffffffffffffffffffffffffff166114f7836109a8565b73ffffffffffffffffffffffffffffffffffffffff167f8c5be1e5ebec7d5bd14f71427d1e84f3dd0314c0f7b2291e5b200ac8c7c3b92560405160405180910390a45050565b600061154882611410565b611587576040517f08c379a000000000000000000000000000000000000000000000000000000000815260040161157e90613060565b60405180910390fd5b6000611592836109a8565b90508073ffffffffffffffffffffffffffffffffffffffff168473ffffffffffffffffffffffffffffffffffffffff16148061160157508373ffffffffffffffffffffffffffffffffffffffff166115e984610558565b73ffffffffffffffffffffffffffffffffffffffff16145b8061161257506116118185611279565b5b91505092915050565b8273ffffffffffffffffffffffffffffffffffffffff1661163b826109a8565b73ffffffffffffffffffffffffffffffffffffffff1614611691576040517f08c379a000000000000000000000000000000000000000000000000000000000815260040161168890612fe0565b60405180910390fd5b600073ffffffffffffffffffffffffffffffffffffffff168273ffffffffffffffffffffffffffffffffffffffff161415611701576040517f08c379a00000000000000000000000000000000000000000000000000000000081526004016116f890613020565b60405180910390fd5b61170c838383612025565b611717600082611484565b6001600360008573ffffffffffffffffffffffffffffffffffffffff1673ffffffffffffffffffffffffffffffffffffffff1681526020019081526020016000206000828254611767919061336a565b925050819055506001600360008473ffffffffffffffffffffffffffffffffffffffff1673ffffffffffffffffffffffffffffffffffffffff16815260200190815260200160002060008282546117be9190613289565b92505081905550816002600083815260200190815260200160002060006101000a81548173ffffffffffffffffffffffffffffffffffffffff021916908373ffffffffffffffffffffffffffffffffffffffff160217905550808273ffffffffffffffffffffffffffffffffffffffff168473ffffffffffffffffffffffffffffffffffffffff167fddf252ad1be2c89b69c2b068fc378daa952ba7f163c4a11628f55a4df523b3ef60405160405180910390a461187d83838361202a565b505050565b606060008214156118ca576040518060400160405280600181526020017f30000000000000000000000000000000000000000000000000000000000000008152509050611a2a565b600082905060005b600082146118fc5780806118e5906134b7565b915050600a826118f591906132df565b91506118d2565b60008167ffffffffffffffff81111561193e577f4e487b7100000000000000000000000000000000000000000000000000000000600052604160045260246000fd5b6040519080825280601f01601f1916602001820160405280156119705781602001600182028036833780820191505090505b5090505b60008514611a2357600182611989919061336a565b9150600a85611998919061352e565b60306119a49190613289565b60f81b8183815181106119e0577f4e487b7100000000000000000000000000000000000000000000000000000000600052603260045260246000fd5b60200101907effffffffffffffffffffffffffffffffffffffffffffffffffffffffffffff1916908160001a905350600a85611a1c91906132df565b9450611974565b8093505050505b919050565b600081604051602001611a429190612cbf565b6040516020818303038152906040528051906020012060001c9050919050565b600081600001549050919050565b8173ffffffffffffffffffffffffffffffffffffffff168373ffffffffffffffffffffffffffffffffffffffff161415611adf576040517f08c379a0000000000000000000000000000000000000000000000000000000008152600401611ad690613040565b60405180910390fd5b80600560008573ffffffffffffffffffffffffffffffffffffffff1673ffffffffffffffffffffffffffffffffffffffff16815260200190815260200160002060008473ffffffffffffffffffffffffffffffffffffffff1673ffffffffffffffffffffffffffffffffffffffff16815260200190815260200160002060006101000a81548160ff0219169083151502179055508173ffffffffffffffffffffffffffffffffffffffff168373ffffffffffffffffffffffffffffffffffffffff167f17307eab39ab6107e8899845ad3d59bd9653f200f220920489ca2b5937696c3183604051611bd09190612f45565b60405180910390a3505050565b611be884848461161b565b611bf48484848461202f565b611c33576040517f08c379a0000000000000000000000000000000000000000000000000000000008152600401611c2a90612fc0565b60405180910390fd5b50505050565b606060405180602001604052806000815250905090565b6060611c5b82611410565b611c9a576040517f08c379a0000000000000000000000000000000000000000000000000000000008152600401611c9190613160565b60405180910390fd5b6000611ca4611c39565b90506000815111611cc45760405180602001604052806000815250611cef565b80611cce84611882565b604051602001611cdf929190612cd6565b6040516020818303038152906040525b915050919050565b60606000825190506000811415611d205760405180602001604052806000815250915050611eb0565b60006003600283611d319190613289565b611d3b91906132df565b6004611d479190613310565b90506000602082611d589190613289565b67ffffffffffffffff811115611d97577f4e487b7100000000000000000000000000000000000000000000000000000000600052604160045260246000fd5b6040519080825280601f01601f191660200182016040528015611dc95781602001600182028036833780820191505090505b5090506000604051806060016040528060408152602001613e03604091399050600181016020830160005b86811015611e6d5760038101905062ffffff818a015116603f8160121c168401518060081b905060ff603f83600c1c1686015116810190508060081b905060ff603f8360061c1686015116810190508060081b905060ff603f831686015116810190508060e01b90508084526004840193505050611df4565b506003860660018114611e875760028114611e9757611ea2565b613d3d60f01b6002830352611ea2565b603d60f81b60018303525b508484525050819450505050505b919050565b611ecf8282604051806020016040528060008152506121c6565b5050565b611edc82611410565b611f1b576040517f08c379a0000000000000000000000000000000000000000000000000000000008152600401611f12906130e0565b60405180910390fd5b80600660008481526020019081526020016000209080519060200190611f4292919061241e565b505050565b6001816000016000828254019250508190555050565b611ff7838383604051602401611f7593929190612f82565b6040516020818303038152906040527fe3849f79000000000000000000000000000000000000000000000000000000007bffffffffffffffffffffffffffffffffffffffffffffffffffffffff19166020820180517bffffffffffffffffffffffffffffffffffffffffffffffffffffffff8381831617835250505050611ffc565b505050565b60008151905060006a636f6e736f6c652e6c6f679050602083016000808483855afa5050505050565b505050565b505050565b60006120508473ffffffffffffffffffffffffffffffffffffffff16612221565b156121b9578373ffffffffffffffffffffffffffffffffffffffff1663150b7a0261207961147c565b8786866040518563ffffffff1660e01b815260040161209b9493929190612ed0565b602060405180830381600087803b1580156120b557600080fd5b505af19250505080156120e657506040513d601f19601f820116820180604052508101906120e39190612762565b60015b612169573d8060008114612116576040519150601f19603f3d011682016040523d82523d6000602084013e61211b565b606091505b50600081511415612161576040517f08c379a000000000000000000000000000000000000000000000000000000000815260040161215890612fc0565b60405180910390fd5b805181602001fd5b63150b7a0260e01b7bffffffffffffffffffffffffffffffffffffffffffffffffffffffff1916817bffffffffffffffffffffffffffffffffffffffffffffffffffffffff1916149150506121be565b600190505b949350505050565b6121d08383612244565b6121dd600084848461202f565b61221c576040517f08c379a000000000000000000000000000000000000000000000000000000000815260040161221390612fc0565b60405180910390fd5b505050565b6000808273ffffffffffffffffffffffffffffffffffffffff163b119050919050565b600073ffffffffffffffffffffffffffffffffffffffff168273ffffffffffffffffffffffffffffffffffffffff1614156122b4576040517f08c379a00000000000000000000000000000000000000000000000000000000081526004016122ab90613100565b60405180910390fd5b6122bd81611410565b156122fd576040517f08c379a00000000000000000000000000000000000000000000000000000000081526004016122f490613000565b60405180910390fd5b61230960008383612025565b6001600360008473ffffffffffffffffffffffffffffffffffffffff1673ffffffffffffffffffffffffffffffffffffffff16815260200190815260200160002060008282546123599190613289565b92505081905550816002600083815260200190815260200160002060006101000a81548173ffffffffffffffffffffffffffffffffffffffff021916908373ffffffffffffffffffffffffffffffffffffffff160217905550808273ffffffffffffffffffffffffffffffffffffffff16600073ffffffffffffffffffffffffffffffffffffffff167fddf252ad1be2c89b69c2b068fc378daa952ba7f163c4a11628f55a4df523b3ef60405160405180910390a461241a6000838361202a565b5050565b82805461242a90613454565b90600052602060002090601f01602090048101928261244c5760008555612493565b82601f1061246557805160ff1916838001178555612493565b82800160010185558215612493579182015b82811115612492578251825591602001919060010190612477565b5b5090506124a091906124a4565b5090565b5b808211156124bd5760008160009055506001016124a5565b5090565b60006124d46124cf84613200565b6131db565b9050828152602081018484840111156124ec57600080fd5b6124f7848285613412565b509392505050565b60008135905061250e81613d81565b92915050565b60008135905061252381613d98565b92915050565b60008135905061253881613daf565b92915050565b60008151905061254d81613daf565b92915050565b600082601f83011261256457600080fd5b81356125748482602086016124c1565b91505092915050565b60008135905061258c81613dc6565b92915050565b6000602082840312156125a457600080fd5b60006125b2848285016124ff565b91505092915050565b600080604083850312156125ce57600080fd5b60006125dc858286016124ff565b92505060206125ed858286016124ff565b9150509250929050565b60008060006060848603121561260c57600080fd5b600061261a868287016124ff565b935050602061262b868287016124ff565b925050604061263c8682870161257d565b9150509250925092565b6000806000806080858703121561265c57600080fd5b600061266a878288016124ff565b945050602061267b878288016124ff565b935050604061268c8782880161257d565b925050606085013567ffffffffffffffff8111156126a957600080fd5b6126b587828801612553565b91505092959194509250565b600080604083850312156126d457600080fd5b60006126e2858286016124ff565b92505060206126f385828601612514565b9150509250929050565b6000806040838503121561271057600080fd5b600061271e858286016124ff565b925050602061272f8582860161257d565b9150509250929050565b60006020828403121561274b57600080fd5b600061275984828501612529565b91505092915050565b60006020828403121561277457600080fd5b60006127828482850161253e565b91505092915050565b60006020828403121561279d57600080fd5b60006127ab8482850161257d565b91505092915050565b6127bd8161339e565b82525050565b6127d46127cf8261339e565b613500565b82525050565b6127e3816133b0565b82525050565b60006127f482613246565b6127fe818561325c565b935061280e818560208601613421565b6128178161361b565b840191505092915050565b600061282d82613251565b612837818561326d565b9350612847818560208601613421565b6128508161361b565b840191505092915050565b600061286682613251565b612870818561327e565b9350612880818560208601613421565b80840191505092915050565b6000815461289981613454565b6128a3818661327e565b945060018216600081146128be57600181146128cf57612902565b60ff19831686528186019350612902565b6128d885613231565b60005b838110156128fa578154818901526001820191506020810190506128db565b838801955050505b50505092915050565b600061291860328361326d565b915061292382613639565b604082019050919050565b600061293b60258361326d565b915061294682613688565b604082019050919050565b600061295e601c8361326d565b9150612969826136d7565b602082019050919050565b6000612981600a8361327e565b915061298c82613700565b600a82019050919050565b60006129a460248361326d565b91506129af82613729565b604082019050919050565b60006129c760198361326d565b91506129d282613778565b602082019050919050565b60006129ea60638361327e565b91506129f5826137a1565b606382019050919050565b6000612a0d600b8361327e565b9150612a188261383c565b600b82019050919050565b6000612a30602c8361326d565b9150612a3b82613865565b604082019050919050565b6000612a5360018361327e565b9150612a5e826138b4565b600182019050919050565b6000612a7660388361326d565b9150612a81826138dd565b604082019050919050565b6000612a99602a8361326d565b9150612aa48261392c565b604082019050919050565b6000612abc60298361326d565b9150612ac78261397b565b604082019050919050565b6000612adf602e8361326d565b9150612aea826139ca565b604082019050919050565b6000612b0260ab8361327e565b9150612b0d82613a19565b60ab82019050919050565b6000612b2560028361327e565b9150612b3082613b00565b600282019050919050565b6000612b4860208361326d565b9150612b5382613b29565b602082019050919050565b6000612b6b60318361326d565b9150612b7682613b52565b604082019050919050565b6000612b8e602c8361326d565b9150612b9982613ba1565b604082019050919050565b6000612bb1602f8361326d565b9150612bbc82613bf0565b604082019050919050565b6000612bd4600a8361327e565b9150612bdf82613c3f565b600a82019050919050565b6000612bf760218361326d565b9150612c0282613c68565b604082019050919050565b6000612c1a600a8361327e565b9150612c2582613cb7565b600a82019050919050565b6000612c3d601d8361327e565b9150612c4882613ce0565b601d82019050919050565b6000612c6060118361327e565b9150612c6b82613d09565b601182019050919050565b6000612c8360318361326d565b9150612c8e82613d32565b604082019050919050565b612ca281613408565b82525050565b612cb9612cb482613408565b613524565b82525050565b6000612ccb828461285b565b915081905092915050565b6000612ce2828561285b565b9150612cee828461285b565b91508190509392505050565b6000612d06828661285b565b9150612d1182612a46565b9150612d1d828561285b565b9150612d2882612a46565b9150612d34828461285b565b9150819050949350505050565b6000612d4d828861288c565b9150612d598287612ca8565b602082019150612d6882612af5565b9150612d74828661285b565b9150612d7f82612a46565b9150612d8b828561285b565b9150612d9682612a46565b9150612da2828461285b565b9150612dad82612c53565b91508190509695505050505050565b6000612dc782612974565b9150612dd3828461285b565b915081905092915050565b6000612de982612a00565b9150612df5828461285b565b915081905092915050565b6000612e0b82612bc7565b9150612e17828561285b565b9150612e22826129dd565b9150612e2e828461285b565b9150612e3982612b18565b91508190509392505050565b6000612e5082612c0d565b9150612e5c828461285b565b915081905092915050565b6000612e7282612c30565b9150612e7e828461285b565b915081905092915050565b6000612e958285612ca8565b602082019150612ea582846127c3565b6014820191508190509392505050565b6000602082019050612eca60008301846127b4565b92915050565b6000608082019050612ee560008301876127b4565b612ef260208301866127b4565b612eff6040830185612c99565b8181036060830152612f1181846127e9565b905095945050505050565b6000604082019050612f3160008301856127b4565b612f3e6020830184612c99565b9392505050565b6000602082019050612f5a60008301846127da565b92915050565b60006020820190508181036000830152612f7a8184612822565b905092915050565b60006060820190508181036000830152612f9c8186612822565b9050612fab6020830185612c99565b612fb860408301846127b4565b949350505050565b60006020820190508181036000830152612fd98161290b565b9050919050565b60006020820190508181036000830152612ff98161292e565b9050919050565b6000602082019050818103600083015261301981612951565b9050919050565b6000602082019050818103600083015261303981612997565b9050919050565b60006020820190508181036000830152613059816129ba565b9050919050565b6000602082019050818103600083015261307981612a23565b9050919050565b6000602082019050818103600083015261309981612a69565b9050919050565b600060208201905081810360008301526130b981612a8c565b9050919050565b600060208201905081810360008301526130d981612aaf565b9050919050565b600060208201905081810360008301526130f981612ad2565b9050919050565b6000602082019050818103600083015261311981612b3b565b9050919050565b6000602082019050818103600083015261313981612b5e565b9050919050565b6000602082019050818103600083015261315981612b81565b9050919050565b6000602082019050818103600083015261317981612ba4565b9050919050565b6000602082019050818103600083015261319981612bea565b9050919050565b600060208201905081810360008301526131b981612c76565b9050919050565b60006020820190506131d56000830184612c99565b92915050565b60006131e56131f6565b90506131f18282613486565b919050565b6000604051905090565b600067ffffffffffffffff82111561321b5761321a6135ec565b5b6132248261361b565b9050602081019050919050565b60008190508160005260206000209050919050565b600081519050919050565b600081519050919050565b600082825260208201905092915050565b600082825260208201905092915050565b600081905092915050565b600061329482613408565b915061329f83613408565b9250827fffffffffffffffffffffffffffffffffffffffffffffffffffffffffffffffff038211156132d4576132d361355f565b5b828201905092915050565b60006132ea82613408565b91506132f583613408565b9250826133055761330461358e565b5b828204905092915050565b600061331b82613408565b915061332683613408565b9250817fffffffffffffffffffffffffffffffffffffffffffffffffffffffffffffffff048311821515161561335f5761335e61355f565b5b828202905092915050565b600061337582613408565b915061338083613408565b9250828210156133935761339261355f565b5b828203905092915050565b60006133a9826133e8565b9050919050565b60008115159050919050565b60007fffffffff0000000000000000000000000000000000000000000000000000000082169050919050565b600073ffffffffffffffffffffffffffffffffffffffff82169050919050565b6000819050919050565b82818337600083830152505050565b60005b8381101561343f578082015181840152602081019050613424565b8381111561344e576000848401525b50505050565b6000600282049050600182168061346c57607f821691505b602082108114156134805761347f6135bd565b5b50919050565b61348f8261361b565b810181811067ffffffffffffffff821117156134ae576134ad6135ec565b5b80604052505050565b60006134c282613408565b91507fffffffffffffffffffffffffffffffffffffffffffffffffffffffffffffffff8214156134f5576134f461355f565b5b600182019050919050565b600061350b82613512565b9050919050565b600061351d8261362c565b9050919050565b6000819050919050565b600061353982613408565b915061354483613408565b9250826135545761355361358e565b5b828206905092915050565b7f4e487b7100000000000000000000000000000000000000000000000000000000600052601160045260246000fd5b7f4e487b7100000000000000000000000000000000000000000000000000000000600052601260045260246000fd5b7f4e487b7100000000000000000000000000000000000000000000000000000000600052602260045260246000fd5b7f4e487b7100000000000000000000000000000000000000000000000000000000600052604160045260246000fd5b6000601f19601f8301169050919050565b60008160601b9050919050565b7f4552433732313a207472616e7366657220746f206e6f6e20455243373231526560008201527f63656976657220696d706c656d656e7465720000000000000000000000000000602082015250565b7f4552433732313a207472616e736665722066726f6d20696e636f72726563742060008201527f6f776e6572000000000000000000000000000000000000000000000000000000602082015250565b7f4552433732313a20746f6b656e20616c7265616479206d696e74656400000000600082015250565b7f54484952445f574f524400000000000000000000000000000000000000000000600082015250565b7f4552433732313a207472616e7366657220746f20746865207a65726f2061646460008201527f7265737300000000000000000000000000000000000000000000000000000000602082015250565b7f4552433732313a20617070726f766520746f2063616c6c657200000000000000600082015250565b7f222c20226465736372697074696f6e223a20224120686967686c79206163636c60008201527f61696d656420636f6c6c656374696f6e206f6620737175617265732e222c202260208201527f696d616765223a2022646174613a696d6167652f7376672b786d6c3b6261736560408201527f36342c0000000000000000000000000000000000000000000000000000000000606082015250565b7f5345434f4e445f574f5244000000000000000000000000000000000000000000600082015250565b7f4552433732313a206f70657261746f7220717565727920666f72206e6f6e657860008201527f697374656e7420746f6b656e0000000000000000000000000000000000000000602082015250565b7f2000000000000000000000000000000000000000000000000000000000000000600082015250565b7f4552433732313a20617070726f76652063616c6c6572206973206e6f74206f7760008201527f6e6572206e6f7220617070726f76656420666f7220616c6c0000000000000000602082015250565b7f4552433732313a2062616c616e636520717565727920666f7220746865207a6560008201527f726f206164647265737300000000000000000000000000000000000000000000602082015250565b7f4552433732313a206f776e657220717565727920666f72206e6f6e657869737460008201527f656e7420746f6b656e0000000000000000000000000000000000000000000000602082015250565b7f45524337323155524953746f726167653a2055524920736574206f66206e6f6e60008201527f6578697374656e7420746f6b656e000000000000000000000000000000000000602082015250565b7f3c2f746578743e3c746578742066696c6c3d272330303030303027207374726f60008201527f6b653d272330303027207374726f6b652d77696474683d27302720783d27333160208201527f312720793d273235372e35272069643d277376675f332720666f6e742d73697a60408201527f653d2732342720666f6e742d66616d696c793d274e6f746f2053616e73204a5060608201527f2720746578742d616e63686f723d2773746172742720786d6c3a73706163653d60808201527f277072657365727665273e00000000000000000000000000000000000000000060a082015250565b7f227d000000000000000000000000000000000000000000000000000000000000600082015250565b7f4552433732313a206d696e7420746f20746865207a65726f2061646472657373600082015250565b7f45524337323155524953746f726167653a2055524920717565727920666f722060008201527f6e6f6e6578697374656e7420746f6b656e000000000000000000000000000000602082015250565b7f4552433732313a20617070726f76656420717565727920666f72206e6f6e657860008201527f697374656e7420746f6b656e0000000000000000000000000000000000000000602082015250565b7f4552433732314d657461646174613a2055524920717565727920666f72206e6f60008201527f6e6578697374656e7420746f6b656e0000000000000000000000000000000000602082015250565b7f7b226e616d65223a202200000000000000000000000000000000000000000000600082015250565b7f4552433732313a20617070726f76616c20746f2063757272656e74206f776e6560008201527f7200000000000000000000000000000000000000000000000000000000000000602082015250565b7f46495253545f574f524400000000000000000000000000000000000000000000600082015250565b7f646174613a6170706c69636174696f6e2f6a736f6e3b6261736536342c000000600082015250565b7f3c2f746578743e3c2f673e3c2f7376673e000000000000000000000000000000600082015250565b7f4552433732313a207472616e736665722063616c6c6572206973206e6f74206f60008201527f776e6572206e6f7220617070726f766564000000000000000000000000000000602082015250565b613d8a8161339e565b8114613d9557600080fd5b50565b613da1816133b0565b8114613dac57600080fd5b50565b613db8816133bc565b8114613dc357600080fd5b50565b613dcf81613408565b8114613dda57600080fd5b5056fe416e204e465420772f20494420257320686173206265656e206d696e74656420746f2025734142434445464748494a4b4c4d4e4f505152535455565758595a6162636465666768696a6b6c6d6e6f707172737475767778797a303132333435363738392b2fa26469706673582212203cd9d0174abef671cfd6d470459e474d0bb9550bf401dc35a00da8192052e52564736f6c63430008010033",
  "linkReferences": {},
  "deployedLinkReferences": {}
}